:100000000C942A000C9447000C9447000C94470071
:100010000C9447000C9447000C9447000C94470044
:100020000C9447000C9447000C9447000C94590022
:100030000C9447000C9447000C9447000C94470024
:100040000C9447000C9447000C9447000C94470014
:100050000C94470011241FBECFE5D4E0DEBFCDBF16
:1000600010E0A0E6B0E0EEEEF0E002C005900D92E8
:10007000A036B107D9F710E0A0E6B0E001C01D92AC
:10008000A336B107E1F70E9449000C9475000C9467
:1000900000001ABA8FEF84BB87BB85E085BB7894DC
:1000A00010BC89E189B988E98AB98EE880BD1BBA9C
:1000B000FFCF1F920F920FB60F9211248F939F9331
:1000C0008CB180936200982F9150933020F495BBAF
:1000D0001092620003C05D9BFECF8CB99F918F91FF
:0E00E0000F900FBE0F901F901895F894FFCF51
:00000001FF
