:100000000C942A000C9447000C9447000C94470071
:100010000C9447000C9447000C9447000C94470044
:100020000C9447000C9447000C9447000C94EF0389
:100030000C9447000C9447000C9447000C94470024
:100040000C9447000C9447000C9447000C94470014
:100050000C94470011241FBECFE5D4E0DEBFCDBF16
:1000600011E0A0E6B0E0EAE8F5E102C005900D92EB
:10007000A83BB107D9F712E0A8EBB1E001C01D928F
:10008000AB3AB107E1F70E94E8020C94C30A0C9462
:100090000000E091D501F091D60192A99F70282F20
:1000A000207F922B92ABE091D501F091D60192A9DD
:1000B0009E7F92ABE091D501F091D60192A99D7FF0
:1000C00092ABE091D501F091D60192A9946092ABE8
:1000D00024EF31E0F9013197F1F7E091D501F0918A
:1000E000D60192A99B7F92ABF9013197F1F7E0918C
:1000F000D501F091D60192A98295807F9F70982BAF
:1001000092ABE091D501F091D60182A9846082ABD7
:10011000C9010197F1F7E091D501F091D60182A9CB
:100120008B7F82AB08950F931F93843499F08334AF
:1001300019F483E090E009C0823419F486E090E07D
:1001400004C0813439F489E090E09093D601809323
:10015000D50104C01092D6011092D501E091D501CD
:10016000F091D6018FEF81ABE091D501F091D601EE
:1001700082A98B7F82AB84EF91E00197F1F783E353
:100180000E9449000AEF10E0C8010197F1F782E3ED
:100190000E944900C8010197F1F788E20E944900D6
:1001A000C8010197F1F78EE00E944900C80101974C
:1001B000F1F781E00E944900C8010197F1F786E05C
:1001C0000E944900C8010197F1F71F910F9108950E
:1001D000E091D501F091D60192A99F70282F207F40
:1001E000922B92ABE091D501F091D60192A991604A
:1001F00092ABE091D501F091D60192A99D7F92AB8F
:10020000E091D501F091D60192A9946092AB2AEFCA
:1002100030E0F9013197F1F7E091D501F091D60185
:1002200092A99B7F92ABE091D501F091D60192A962
:100230008295807F9F70982B92ABE091D501F091D1
:10024000D60182A9846082ABC9010197F1F7E091E0
:10025000D501F091D60182A98B7F82AB089560937E
:10026000AB008150E62FF0E0E555FF4F9081890FFC
:100270000E9449008AEF90E00197F1F70895CF932B
:10028000DF93EC011092C00107C00E94E80080914A
:10029000C0018F5F8093C0018091C001FE01E80F13
:1002A000F11D8081882389F7DF91CF9108952F92E6
:1002B0003F924F925F926F927F928F929F92AF92F6
:1002C000BF92CF92DF92EF92FF920F931F93DF9333
:1002D000CF9300D000D0CDB7DEB73C018091AB000A
:1002E000813029F080EC90E09A83898304C0E0E8B3
:1002F000F0E0FA83E9831C821B82882499241B0185
:10030000442437FC4094542C68C089810E944900E1
:10031000C201B1010E94E5075B016C0120E030E001
:100320004AE753E40E945B067B018C0120E030E049
:1003300040E85FE30E94B50788231CF461E070E0A9
:1003400023C020E03FEF4FE757E4C801B7010E9408
:1003500055071816ACF420E030E040E251E4C60145
:10036000B5010E945B060E94850406C089E190E009
:100370000197F1F76150704061157105B9F707C039
:10038000C801B7010E948504CB010197F1F70B81E9
:100390001C81060D171D0AC08B819C8101969C83D0
:1003A0008B83F80181918F010E94E80020E030E00A
:1003B000A9014F5F5F4FF301E20FF31F8081882394
:1003C00011F09A01F5CF8B819C818217930724F35A
:1003D0000894811C911C9C828B8220E030E0F30108
:1003E000E20FF31F80812F5F3F4F8823C1F7285012
:1003F0003040EB81FC81E217F30709F086CF0F90C4
:100400000F900F900F90CF91DF911F910F91FF9060
:10041000EF90DF90CF90BF90AF909F908F907F90A4
:100420006F905F904F903F902F900895AC0120E027
:1004300030E0FA01E20FF31F80812F5F3F4F8823E6
:10044000C1F7C9010895843499F0833419F483E025
:1004500090E009C0823419F486E090E004C0813451
:1004600039F489E090E09093BF018093BE0104C00D
:100470001092BF011092BE01E091BE01F091BF0148
:100480008FE081ABE091BE01F091BF018FEF82ABB5
:100490000895E091BE01F091BF0180A990E0807FB6
:1004A00009F091E0892F0895E091BE01F091BF011C
:1004B00082A9807F82ABE091BE01F091BF01DF0194
:1004C000D09680A9807F8093AA02803F69F728E8B0
:1004D00033E1C9010197F1F78C91807F8093AA02E3
:1004E000803FB9F3C9010197F1F78C91807F809328
:1004F000AA02803F71F38EEF82ABE091BE01F091D2
:10050000BF0180A9807F8093AA02803F19F01092DA
:10051000BD0129C08DEF82ABE091BE01F091BF011A
:1005200080A9807F8093AA02803F11F081E019C0EA
:100530008BEF82ABE091BE01F091BF0180A9807F7B
:100540008093AA02803F11F082E00BC087EF82AB5C
:10055000E091BE01F091BF0180A9807F8093AA0243
:1005600083E08093BD018091AA02803E51F4E09126
:10057000BD01F0E0EE0FFF1FEE0FFF1FE556FF4F2E
:1005800018C0803D59F4E091BD01F0E0EE0FFF1F6F
:10059000EE0FFF1FE556FF4F818115C0E091BD01B1
:1005A000803B49F4F0E0EE0FFF1FEE0FFF1FE35614
:1005B000FF4F808108C0F0E0EE0FFF1FEE0FFF1F1E
:1005C000E556FF4F83818093A9028091A902089587
:1005D000FF920F931F938FEF87BB789410BC89E134
:1005E00089B988E98AB98EE880BD81E40E94230236
:1005F00083E40E9493008CE00E94490061E081E066
:100600000E942F016FE570E080E690E00E945701A4
:10061000FF24FA9407E014E118BA0E945402982FBC
:100620008093B90180538A3010F58091BA018C30E3
:10063000F0F4882319F481E00E9449008091B80108
:100640008093BA018091B9010E94E8009091BA01AB
:10065000E92FF0E0EF53FE4F8091B90180839F5F57
:100660009093BA011092B9019093B80168C0933485
:1006700091F481E00E94490080E006C0E82FF0E09C
:10068000EF53FE4F10828F5F8C30C0F31092BA018F
:100690001092B80154C09D3309F051C0F8BAE091EE
:1006A000B801F0E0EF53FE4F00838091BA01882338
:1006B00019F481E00E9449001092BA019091C101A1
:1006C000892F8153833030F49F709093C1019091B2
:1006D000BA0112C062E081E00E942F0186E890E03A
:1006E0000E943F01F4CF5D9BFECFE92FF0E0EF5376
:1006F000FE4F80818CB99F5F9C30A8F39093BA0124
:100700008091C1018150833060F462E081E00E94F9
:100710002F0182E990E00E943F0161E081E00E94A8
:100720002F0180E006C0E82FF0E0EF53FE4F10826B
:100730008F5F8C30C0F31092B8011092BA01809193
:10074000B9018A3231F58091BC0181508093BC019E
:100750008A30E0F481E00E9449008091BC01819FD1
:10076000C00111248F519E4F0E943F011092BA0187
:1007700062E081E00E942F01E091BC01F0E0E952CB
:10078000FE4F8081805D0E94E80003C081E00E94EE
:1007900049008091B9018B3209F03ECF81E00E947F
:1007A00049008091BB01819FC001112483539E4F5A
:1007B0000E943F011092BA0162E081E00E942F0185
:1007C000E091BB01F0E0EA52FE4F8081805D0E9423
:1007D000E8008091BB0181508093BC011DCF1F9226
:1007E0000F920FB60F9211242F933F934F936F9355
:1007F0007F938F939F93AF93BF93EF93FF938091DA
:10080000BA018823C9F48091BB0190E040E024E163
:1008100030E0829FB001839F700D929F700D112474
:1008200007C0FB01E40FF11DEF51FE4F10824F5F37
:100830004D30B8F31092BA013091BB01A32FB0E054
:100840004091BA012CB184E190E0A89FF001A99FEA
:10085000F00DB89FF00D1124E40FF11DEF51FE4F84
:100860002083822F8650843020F4A952BE4F255019
:100870002C93842F8F5F8093BA018B3039F41092C0
:10088000BA013093BC013F5F3093BB01FF91EF9100
:10089000BF91AF919F918F917F916F914F913F91B8
:1008A0002F910F900FBE0F901F90189510BC89E1EB
:1008B00089B988E98AB98EE880BD089580E006C0CC
:1008C000E82FF0E0EF53FE4F10828F5F8C30C0F3C3
:1008D0001092BA0108958091BB0190E040E024E1BC
:1008E00030E0829FB001839F700D929F700D1124A4
:1008F00007C0FB01E40FF11DEF51FE4F10824F5F67
:100900004D30B8F31092BA010895EF92FF920F9311
:100910001F937B018C0120E030E040E05FE40E9407
:10092000850788238CF020E030E040E05FE4C801D8
:10093000B7010E94FD050E9443089B01AC012050B5
:1009400030404040504806C0C801B7010E944308EB
:100950009B01AC01B901CA011F910F91FF90EF906B
:100960000895A0E0B0E0E7EBF4E00C948C0ADC0121
:100970002B01FA019C91923008F439C1EB01888176
:10098000823008F433C1943069F4843009F02FC107
:1009900011969C9111978981981709F428C1A0EBB1
:1009A000B0E025C1843009F421C18230A9F492302D
:1009B00009F01DC19A01AD0188E0EA010990AE017C
:1009C000E90109929E018150C1F7E20189811196E6
:1009D0009C918923818308C1923009F407C1129642
:1009E0002D903C901397EB018A819B811496AD90DA
:1009F000BD90CD90DC901797EC80FD800E811F811B
:100A00009101281B390BB90137FF04C066277727EE
:100A1000621B730B603271050CF061C01216130675
:100A20006CF537014801062E04C09694879477949C
:100A300067940A94D2F721E030E040E050E004C02F
:100A4000220F331F441F551F6A95D2F721503040A3
:100A5000404050402E213F21402351232115310594
:100A60004105510521F021E030E040E050E07901FE
:100A70008A01E628F728082919293CC0232BD1F13F
:100A8000260E371E35014601062E04C09694879423
:100A9000779467940A94D2F721E030E040E050E088
:100AA00004C0220F331F441F551F6A95D2F72150EF
:100AB0003040404050402A213B214C215D212115EE
:100AC00031054105510521F021E030E040E050E0E2
:100AD00059016A01A628B728C828D9280BC0821551
:100AE00093052CF01C01AA24BB24650103C0EE244D
:100AF000FF24870111969C91D20111968C91981731
:100B000009F445C0992339F0A80197012A193B0936
:100B10004C095D0906C0A60195012E193F09400B3D
:100B2000510B57FD08C01182338222822483358302
:100B3000468357831DC081E08183338222828827C8
:100B40009927DC01821B930BA40BB50B848395833F
:100B5000A683B7830DC0220F331F441F551F248364
:100B60003583468357838281938101979383828360
:100B70002481358146815781DA01C9010197A10994
:100B8000B1098F5F9F4FAF4FBF4328F30BC09183D5
:100B900033822282EA0CFB1C0C1D1D1DE482F582AF
:100BA0000683178383E080832481358146815781C2
:100BB00057FF1AC0C901AA2797FDA095BA2F8170C7
:100BC0009070A070B0705695479537952795822BF9
:100BD000932BA42BB52B84839583A683B783828123
:100BE0009381019693838283DF0101C0D201CD01FD
:100BF000CDB7DEB7E2E10C94A80AA0E2B0E0E3E0F2
:100C0000F6E00C94980A69837A838B839C832D8306
:100C10003E834F835887E9E0EE2EF12CEC0EFD1E4B
:100C2000B701CE0101960E94BB098E010F5E1F4FD6
:100C3000B801CE0105960E94BB098A8991E08927F7
:100C40008A8BAE01475E5F4FB801C7010E94B104B5
:100C50000E94E608A096E6E00C94B40AA0E2B0E098
:100C6000E4E3F6E00C94980A69837A838B839C838F
:100C70002D833E834F835887F9E0EF2EF12CEC0E45
:100C8000FD1EB701CE0101960E94BB098E010F5EC9
:100C90001F4FB801CE0105960E94BB09AE01475E09
:100CA0005F4FB801C7010E94B1040E94E608A096F8
:100CB000E6E00C94B40AA0E2B0E0E1E6F6E00C94C1
:100CC0008C0A69837A838B839C832D833E834F8335
:100CD0005887BE01675F7F4FCE0101960E94BB0916
:100CE000BE016F5E7F4FCE0105960E94BB099985BC
:100CF000923088F089898230C8F0943019F48230BB
:100D000051F404C0843029F4923081F480EB90E0F7
:100D1000C6C0923049F420E09A858A89981321E070
:100D20002A87CE010996BBC0823049F420E09A851B
:100D30008A89981321E02A8BCE014196B0C02D8478
:100D40003E844F8458886D887E888F88988CEE24E6
:100D5000FF248701AA24BB24650140E050E060E045
:100D600070E0E0E0F0E0C10181709070892BE9F063
:100D7000E60CF71C081D191D9A01AB012A0D3B1D3D
:100D80004C1D5D1D80E090E0A0E0B0E0E614F704AB
:100D90000805190520F481E090E0A0E0B0E0BA0178
:100DA000A901480F591F6A1F7B1FAA0CBB1CCC1C32
:100DB000DD1C97FE08C081E090E0A0E0B0E0A82A2A
:100DC000B92ACA2ADB2A3196E032F10549F0660CCD
:100DD000771C881C991C5694479437942794C3CF4A
:100DE000FA85EA892B893C898B859C85280F391FD8
:100DF0002E5F3F4F17C0CA0181709070892B61F040
:100E000016950795F794E79480E090E0A0E0B0E8AD
:100E1000E82AF92A0A2B1B2B769567955795479553
:100E20002F5F3F4F77FDE7CF0CC0440F551F661F64
:100E3000771F17FD4160EE0CFF1C001F111F215092
:100E40003040403090E0590790E0690790E479071E
:100E500060F32B8F3C8FDB01CA018F779070A070FD
:100E6000B07080349105A105B10561F447FD0AC059
:100E7000E114F1040105110529F0405C5F4F6F4F4B
:100E80007F4F40781A8EFE1711F081E08A8F4D8FC8
:100E90005E8F6F8F78A383E0898FCE0149960E9481
:100EA000E608A096E2E10C94A80AA8E1B0E0EBE520
:100EB000F7E00C94980A69837A838B839C832D8353
:100EC0003E834F83588789E0E82EF12CEC0EFD1EFF
:100ED000B701CE0101960E94BB098E010F5E1F4F24
:100EE000B801CE0105960E94BB098985823040F089
:100EF0008989823028F0B801C7010E94330A01C0F5
:100F00008FEF6896E6E00C94B40AA8E1B0E0EBE855
:100F1000F7E00C94980A69837A838B839C832D83F2
:100F20003E834F83588789E0E82EF12CEC0EFD1E9E
:100F3000B701CE0101960E94BB098E010F5E1F4FC3
:100F4000B801CE0105960E94BB098985823040F028
:100F50008989823028F0B801C7010E94330A01C094
:100F60008FEF6896E6E00C94B40AA8E1B0E0EBEBF2
:100F7000F7E00C94980A69837A838B839C832D8392
:100F80003E834F83588789E0E82EF12CEC0EFD1E3E
:100F9000B701CE0101960E94BB098E010F5E1F4F63
:100FA000B801CE0105960E94BB098985823040F0C8
:100FB0008989823028F0B801C7010E94330A01C034
:100FC00081E06896E6E00C94B40AA8E0B0E0EBEEAD
:100FD000F7E00C94950A9B01AC0183E08983DA0168
:100FE000C9018827B7FD83959927AA27BB27B82E63
:100FF000211531054105510519F482E089833AC074
:101000008823A9F0203080E0380780E0480780E896
:10101000580729F460E070E080E09FEC30C0EE24D7
:10102000FF248701E21AF30A040B150B02C07901B1
:101030008A018EE1C82ED12CDC82CB82ED82FE8229
:101040000F831887C801B7010E94970801971816E7
:10105000190684F4082E04C0EE0CFF1C001F111F9B
:101060000A94D2F7ED82FE820F831887C81AD90A34
:10107000DC82CB82BA82CE0101960E94E6082896D5
:10108000E9E00C94B10AACE0B0E0E9E4F8E00C94DB
:101090009C0A69837A838B839C83BE016B5F7F4F3D
:1010A000CE0101960E94BB098D81823061F18230B0
:1010B00050F1843021F48E81882351F12EC02F818C
:1010C000388537FD20C06E812F3131051CF0662335
:1010D000F9F023C08EE190E0821B930B29853A85BD
:1010E0004B855C8504C056954795379527958A951D
:1010F000D2F76623B1F050954095309521953F4F3A
:101100004F4F5F4F0EC020E030E040E050E009C09C
:101110002FEF3FEF4FEF5FE704C020E030E040E00B
:1011200050E8B901CA012C96E2E00C94B80AEF929B
:10113000FF920F931F937B018C0180E0E81680E003
:10114000F80681E0080780E0180788F48FEFE816BA
:10115000F1040105110531F028F088E090E0A0E0ED
:10116000B0E017C080E090E0A0E0B0E012C080E006
:10117000E81680E0F80680E0080781E0180728F00C
:1011800088E190E0A0E0B0E004C080E190E0A0E061
:10119000B0E020E230E040E050E0281B390B4A0B81
:1011A0005B0B04C016950795F794E7948A95D2F7E0
:1011B000F701E854FF4F8081281B3109410951098B
:1011C000C9011F910F91FF90EF900895DF92EF9268
:1011D000FF920F931F93FC01E480F5800681178135
:1011E000D1808081823048F480E090E0A0E1B0E0DE
:1011F000E82AF92A0A2B1B2BA5C0843009F49FC0CA
:10120000823021F4EE24FF24870105C0E114F104AB
:101210000105110519F4E0E0F0E096C062817381E8
:101220009FEF623879070CF05BC022E83FEF261B86
:10123000370B2A3131052CF020E030E040E050E05F
:101240002AC0B801A701022E04C07695679557956C
:1012500047950A94D2F781E090E0A0E0B0E004C0A6
:10126000880F991FAA1FBB1F2A95D2F70197A109C2
:10127000B1098E219F21A023B1230097A105B105BB
:1012800021F081E090E0A0E0B0E09A01AB01282BD2
:10129000392B4A2B5B2BDA01C9018F779070A07034
:1012A000B07080349105A105B10539F427FF09C05C
:1012B000205C3F4F4F4F5F4F04C0215C3F4F4F4F6B
:1012C0005F4FE0E0F0E02030A0E03A07A0E04A07FE
:1012D000A0E45A0710F0E1E0F0E079018A0127C0AC
:1012E0006038710564F5FB01E158FF4FD801C70173
:1012F0008F779070A070B07080349105A105B10512
:1013000039F4E7FE0DC080E490E0A0E0B0E004C056
:101310008FE390E0A0E0B0E0E80EF91E0A1F1B1F6B
:1013200017FF05C016950795F794E794319687E067
:1013300016950795F794E7948A95D1F705C0EE24A2
:10134000FF248701EFEFF0E06E2F67956627679522
:10135000902F9F77D794DD24D7948E2F8695492F91
:10136000462B582F5D29B701CA011F910F91FF909D
:10137000EF90DF900895FC01DB01408151812281D3
:10138000622F6F7770E0221F2227221F9381892FFF
:10139000880F822B282F30E0991F9927991F1196CB
:1013A0009C93119721153105A9F54115510561054A
:1013B000710511F482E037C082E89FEF13969C9389
:1013C0008E9312979A01AB0167E0220F331F441FDF
:1013D000551F6A95D1F783E08C930DC0220F331F00
:1013E000441F551F12968D919C9113970197139648
:1013F0009C938E931297203080E0380780E0480756
:1014000080E4580758F314962D933D934D935C93C5
:10141000179708952F3F310579F44115510561055E
:10142000710519F484E08C93089564FF03C081E092
:101430008C9312C01C9210C02F57304013963C93CF
:101440002E93129783E08C9387E0440F551F661FFD
:10145000771F8A95D1F7706414964D935D936D93C1
:101460007C93179708951F93DC01FB019C919230A8
:1014700008F447C08081823008F443C0943051F4AE
:1014800011961C91843099F58181682F70E0611B61
:1014900071093FC0843021F0923031F48230B9F1CB
:1014A0008181882389F12DC011961C91119782307A
:1014B000F1F081811817D9F412962D913C91139770
:1014C000828193818217930794F028173907BCF023
:1014D00014968D919D910D90BC91A02D2481358104
:1014E00046815781281739074A075B0718F41123EB
:1014F00041F00AC082179307A407B50740F41123EF
:1015000019F061E070E005C06FEF7FEF02C060E0AE
:1015100070E0CB011F9108952F923F924F925F92FE
:101520006F927F928F929F92AF92BF92CF92DF92F3
:10153000EF92FF920F931F93CF93DF93CDB7DEB758
:10154000CA1BDB0B0FB6F894DEBF0FBECDBF0994EC
:101550002A88398848885F846E847D848C849B8443
:10156000AA84B984C884DF80EE80FD800C811B8151
:10157000AA81B981CE0FD11D0FB6F894DEBF0FBE80
:0A158000CDBFED010895F894FFCFF0
:10158A002020202020204D657373656E67657220C8
:10159A0042792047205361696B6972616E2020206D
:1015AA0020202020200057726F6E67204944202196
:1015BA00200053656E7420212120003738392F34DA
:1015CA0035362A3132332D43303D2B0180C094D435
:1015DA0000000000000000000001020203030303F0
:1015EA0004040404040404040505050505050505A9
:1015FA000505050505050505060606060606060689
:10160A000606060606060606060606060606060670
:10161A000606060606060606070707070707070758
:10162A000707070707070707070707070707070740
:10163A000707070707070707070707070707070730
:10164A000707070707070707070707070707070720
:10165A000707070707070707080808080808080808
:10166A0008080808080808080808080808080808F0
:10167A0008080808080808080808080808080808E0
:10168A0008080808080808080808080808080808D0
:10169A0008080808080808080808080808080808C0
:1016AA0008080808080808080808080808080808B0
:1016BA0008080808080808080808080808080808A0
:1016CA000808080808080808080808080808080890
:0816DA000808080808080808C8
:00000001FF
